:020000040000FA
:1000000000400020C1630100FD630100FF630100A7
:1000100000000000000000000000000000000000E0
:10002000000000000000000000000000016401006A
:1000300000000000000000000364010005640100EE
:1000400007640100654B0100356801000764010089
:100050000764010000000000399E010007640100F0
:1000600065A100000764010041A0010007640100D0
:1000700007640100076401000764010007640100D0
:1000800007640100916D010007640100076401002D
:1000900007640100799C0100499D0100ADA20000A8
:1000A000BDA2000007640100000000000000000085
:1000B0000000000000000000000000000000000040
:1000C00010B5064C2378002B07D1054B002B02D02E
:1000D000044800E000BF0123237010BD0801002088
:1000E0000000000058D8030008B5084B002B03D0CF
:1000F0000748084900E000BF07480368002B00D10B
:1001000008BD064B002BFBD09847F9E70000000024
:1001100058D803000C010020080100200000000056
:10012000164B002B00D1144B9D46402292029A1A86
:10013000924600218B460F461348144A121A2CF09F
:10014000F9FD0F4B002B00D098470E4B002B00D031
:1001500098470020002104000D000D48002802D01F
:100160000C4800E000BF22F069FC200029002AF0C2
:1001700050FA22F0C3F9C0460000080000400020F9
:10018000000000000000000008010020EC0C00202E
:100190000000000000000000F0B51F4B8BB004AC65
:1001A00020C9013800930194062314F0EFF9E068A8
:1001B0001A4EB04203D11A4B5B79039302E028F048
:1001C000EEF903902069B04202D1164B5F7902E04C
:1001D00028F0E5F9071C6069B04202D1124B58794A
:1001E00001E028F0DCF96B4642B201201B7B0435AC
:1001F000404279B200905BB2281C16F019FC281C12
:100200006168A268002316F099FB281C049916F077
:10021000CDFB301C0BB0F0BDC0DB020020F30200B0
:100220006C070300780A03009008030070B586B0DD
:10023000061C0122081C03A911F002FD039D2C1CC1
:10024000049A631B0192934205D22178301D16F067
:10025000D9FC0134F4E7014806B070BD20F3020078
:10026000F0B5141C89B00122071C081C02A911F06A
:10027000E7FC201C002405A90222029D11F0E0FCED
:10028000059E039B01939C4206D2295D381D16F002
:10029000B9FC30550134F4E7014809B0F0BDC0465F
:1002A00020F30200F0B5051C87B048680C1C0F68ED
:1002B00011F006FB011C02A826F027FE0026032DE4
:1002C00003D1A06811F0FCFA061C0024039B0193E3
:1002D0009C4209D2049B381D311C1D19019316F054
:1002E00091FC01342870F1E702A902480CF020FBD0
:1002F00007B0F0BDBC0C03000022114B1A60031CB8
:10030000104A1233FF33811800225A701A700433D6
:100310008B42F9D1011C031C09310833FF31002243
:100320001A709A705A70DA7004338B42F7D1C32373
:100330007F329B00C254044A044B1A607047C04687
:100340002401002011030000ED4A030014000020E6
:100350000023F7B5071C1C1CA200BA18FF32517C01
:100360007F2951D0927C651C9B18DBB2EF2B2AD9D8
:10037000EBB20193C1239B00FE187D23351C009333
:10038000009B019A934209DB281D291C04222CF0B2
:10039000B4FC009B043D013B0093F1E70023950072
:1003A0007D19FF356B74AB74EB742B757D250234AE
:1003B000E4B2A5421CDB301D311C04222CF09DFC54
:1003C000013D043EF5E77D291BD8104A525CD20757
:1003D00017D5C1237D269B00ECB2FD18A64207DB92
:1003E000281D291C04222CF088FC013E043DF5E761
:1003F0007E23A200BA18FF32537400239374D3747F
:1004000013750134E4B2A7E7F7BDC0469F4A030065
:10041000012110B54B1EDBB29B00C318FF335A7C81
:100420007F2A15D00B4CA25C520602D40131C9B20E
:10043000F0E75A7D7F2AF9D0A25C7F2AF6D9DA7DCF
:10044000002AF3D054B2002CF0DB0132DA74EDE76D
:1004500010BDC046FE490300031CF7B54B4A1333D9
:10046000FF3382180021197004339342FAD10B1C18
:100470005AB2002A01DA464A7DE0021CFC321769B2
:10048000B94205D37F2244339B001A5401207CE0FB
:10049000D668755C602D01D9203DEDB24C1CE4B2EC
:1004A000BC4223D0325D0092602A02D9203AD2B2F7
:1004B0000092232D1ED1009A303A092A01D9354ADB
:1004C00059E00231CCB2BC4204D3FF2AF7D84270C3
:1004D000211CCDE7315D0D1C303D092DF5D80A25D5
:1004E0006A430134303A5218E4B2ECE7232DE6D0E7
:1004F000002200920026F7B20197274FF25DAA4230
:1005000014D1264AB25C94462A2A0FD0009A944508
:100510000CD16C469A0024798218FF3254744478C6
:10052000013302311475DBB2CCB2D1E70136512E62
:10053000E1D10022194ED1B2965D2A2E0BD1BE5CBC
:10054000AE4208D19A008218FF32517441780133CB
:100550001175DBB2BCE70132512AEBD1493A10499F
:10056000895CA94204D0002A04D0013AD2B2F6E74D
:10057000002A04D10B4A0C4B00201A6005E0191C1C
:100580004331890041188A70A2E7FEBD12030000C2
:10059000F04A0300024B03005C490300AD4903002D
:1005A000CF4B0300104B0300140000201130FF302C
:1005B00003787F2B0AD002228256002A01DC044AEB
:1005C00000E0044AD35C43700430F1E77047C04652
:1005D0007F4B03004F4A03000023F0B589B0019020
:1005E0000093009B019A9B00D3180393FF335E7C1A
:1005F0007F2E00D1C6E064498A5D900702D4009B3B
:100600000133BDE0D2074BD4009A7D25571C721CE4
:10061000D2B204925D4AFFB2921952780592DA7C06
:100620001B7D0692C122920094460793019B63446E
:100630001C1C0293BD4207DB201D211C04222CF050
:100640005CFB013D043CF5E7019BBF00DF196B46F5
:100650001B7CFF377B746B461B7DB51CBB746B46E4
:100660001B7EEDB2FB746B461B7F3B75009B9C1C95
:10067000464BE4B29E19B7787D26039BFF33DA7CA4
:100680001B7D03920493A6426CDB029B0422181D7F
:10069000191C2CF032FB029B013E043B0293F2E753
:1006A000009A0132D2B2131C019844339B001B5CA8
:1006B000002BF6D0009A571C7F2B07D0CA5C12077C
:1006C00002D4243B012B01D8FBB289E7731CDBB2B7
:1006D00004932E4B7D259B195B78FFB20593039BFA
:1006E000FF33DA7C1B7D0692C12292009446079369
:1006F000019B63441C1C0293BD4207DB201D211C8F
:1007000004222CF0FAFA013D043CF5E7019BBF00FE
:10071000DF196B461B7CFF377B746B461B7DB51C5A
:10072000BB746B461B7EEDB2FB746B461B7F3B7547
:10073000009B9C1C154BE4B29E19B7787D26039B49
:10074000FF33DA7C1B7D03920493A6420ADB029BF3
:100750000422181D191C2CF0D0FA029B013E043B08
:100760000293F2E7019BA4001C196B46FF346574E9
:10077000A7741B7BE3746B461B7C2375009B0333C0
:10078000DBB22DE709B0F0BDFE4903007F4B03004B
:10079000F0B5002587B00190019AAB00D318029301
:1007A000FF335A7C002A00D12EE17F2A00D155E187
:1007B000AB496C1C895CC8062AD5DA7C7D2604927C
:1007C000202211404A424A4115218A1A0392C1222D
:1007D0001B7D92000593019BE7B29C18BE4207DB8C
:1007E000201D211C04222CF088FA013E043CF5E770
:1007F000019BBF00DF196B461B7BFF377B74002317
:10080000BB746B461B7CFB746B461B7D3B75ADE07C
:1008100018264E2A02D04F2A23D11B26DA7C7D27A8
:1008200002920D225A74C1221B7D92000393019BF8
:10083000E4B29D18A74207DB281D291C04222CF0D6
:100840005CFA013F043DF5E7019AA300D3180022AA
:10085000FF339A746A46127A5E74DA746A46127BBF
:10086000B1E0502A01D11C26D8E7C90933D0D97C80
:10087000002930D0E4B2211C019844318900095C80
:10088000002928D1A91CC9B20391890041180F1C65
:10089000FF37787C7F281ED0714E305CC0091AD09B
:1008A000F97C002917D0C1227D26019B92009D185A
:1008B000039B9E4207DB281D291C04222CF01DFAF5
:1008C000013E043DF4E71F237B740023BB74FB74DB
:1008D0003B75251C60E76C1C172A12D1597B6A1ED8
:1008E000D2B2452901D11B3902E0392902D10D3993
:1008F00059738DE05A4A525CD20900D1ACE0122201
:10090000A9E0182A07D15A7B55498A5C7F2A00D86A
:10091000A2E013229FE0202A05D15A7B3C2A00D076
:100920009AE0262297E0482A09D15A7D7F2A03D0EF
:100930004B498A5C92060FD44B225A740CE03C2A35
:100940000AD15A7D7F2A00D186E045498A5C920609
:1009500000D581E03F227EE05A7C4149895CC9078D
:1009600004D5597B20294BD10C3A74E0029B6C1CB6
:10097000FF335A7C352A06D15A7B3A498A5C5207A2
:100980006AD5102267E02A2A1FD1C1227D26DF7C8A
:100990001B7D92000293019BE4B29D18A64207DBE7
:1009A000281D291C04222CF0A8F9013E043DF5E77E
:1009B000019AA300D3182B22FF335A7400229A7491
:1009C0006A46DF74127A1A7583E72C2A18D1C1227D
:1009D0007D26DF7C1B7D92000293019BE4B29D1873
:1009E000A64207DB281D291C04222CF086F9013EB3
:1009F000043DF5E7019AA300D318FF332D22DCE76D
:100A0000452A04D0392A02D00135ECB261E72A1C0C
:100A1000111C019843318900114B095C6C1C595C15
:100A20007F2919D901320199D2B292008A18FF3276
:100A3000517C002906D05B5C7F2B0DD9D37C002B29
:100A400006D009E0527D7F2A06D09B5CDB0903D0EB
:100A50001E22029BFF335A74E4B23AE707B0F0BD9E
:100A6000FE4903009F4A0300F7B501214C1EE4B282
:100A7000231C44339B001B5C7F2B2CD0554DEB5C1F
:100A8000DB0702D40131C9B2F0E7231C013BDBB222
:100A9000002B21D01A1C44329200125C7F2A03D012
:100AA0004D4EB25C7F2AF1D99A008218FF32567CF3
:100AB0007F2E0BD0AF5DBF0603D5474FBE5D7607D7
:100AC00004D5967C77080136F61996740133DBB2AB
:100AD000A342E9D1D6E700239A008218FF32517C65
:100AE0007F2976D03C4D6E5CF40933D04127591CE8
:100AF000C9B28C000419FF34667C0194BC467F2E79
:100B000001D0AF5DBC464024AF5D27420FD1123EFD
:100B1000012E01D90B1CDFE70233DBB244339B000B
:100B20001B5CEB5C2342F5D0937C013B08E0634601
:100B30005B0707D46346DB07ECD5937CDC081B1B03
:100B40009374E7E7019B9B7B5A1C9B08D318019A7F
:100B50009373DFE71F4C645C21070FD50133D9B2D3
:100B60008B00C318FF335A7C7F2AD3D0AA5C92072C
:100B7000D0D506229A74013A9A73CBE702210E422D
:100B80001BD01C1C0134E4B2211C44318900095CD7
:100B90000029F7D001337F2919D00F4D695C8907EF
:100BA00015D5A4000419FF34A17C49080131A174B2
:100BB000947C64080134947409E0E40606D5547BFF
:100BC0002C5D0C4202D0917C023991740133D9B270
:100BD000A0E7F7BD9F4A0300FE49030070B5041C5F
:100BE000FFF78AFB201CFFF737FC231C0022FC3395
:100BF000011EDA601A61914244D0261C224D113642
:100C00002B68FF36934203D02048311C0DF09EFA2A
:100C1000201CFFF7BDFD201CFFF7FAFB201CFFF78F
:100C2000C5FC201CFFF720FF201CFFF7D5FCC422C9
:100C3000331C9200A1181A78502A06D97F2A07D0AF
:100C4000134A144B00211A601CE004338B42F2D18A
:100C50002B68002B02D0104822F086FC201CFFF7E6
:100C600077FB2B68002B03D00C48311C0DF06EFA7B
:100C7000201C23F0D9FB074B094918682CF055F9C3
:100C800041424141081C70BD8C010020274B0300EC
:100C9000364B0300140000205C4B03006C4B030038
:100CA000ED4A030013B5041CA06805F057FA019043
:100CB00000280ED06368074A934205D0181C012112
:100CC000002201AB05F002F910F03AFF0028EBD04A
:100CD000019816BD20F30200F0B5114B87B003ADAB
:100CE00040C9013800930195032313F04FFC686855
:100CF0000C4C1E27A04202D027F051FC071CA8680C
:100D00000022A04202D027F04AFC021C706803991E
:100D10000771427115F07EF9201C07B0F0BDC04686
:100D2000B8DD020020F3020030B5124B8BB003ACEB
:100D300020C9013800930194032313F027FC06A86F
:100D4000616826F0E2F8039B089A5900237A009321
:100D50006868079B16F006FB021E05D00649074887
:100D600013F082FA15F021F906A905480BF0E0FD11
:100D70000BB030BDECDC0200D84B0300D4310300D3
:100D8000BC0C030030B5114B89B002AC20C901384E
:100D900000930194032313F0F9FB606805A9012275
:100DA00010F04EFF029B059A5900237A0093686861
:100DB000069B16F021FB021E05D00549054813F0DD
:100DC00053FA15F0F2F8044809B030BD24DD0200F2
:100DD000FB4B0300D431030020F3020070B5061C66
:100DE000081C26F0F5F8051C23F005FC041E06D1AE
:100DF00008492A1C084813F037FA15F0D6F8301CB9
:100E000027F088FF031C0121201C1A1C05F0BCFEE2
:100E100070BDC0461F4C0300CC33030010B5041C4A
:100E200026F0D6F829F07AF9031C012083420CD071
:100E30000649201C26F0E8F8201C26F0C9F829F005
:100E40006DF9023843425841400010BD704C030018
:100E5000F0B59DB000AF0C68032807D9CB6800251A
:100E6000FB60042805D00D696D1002E00025A24B3F
:100E7000FB601C23201CF9180CF048FA7861002D47
:100E800056D09E4C6E21606813F0C2F8061C606854
:100E90009621002204300BF0C9F81823FA18D11853
:100EA000041C301C0CF032FA3B6B011C013DC018D5
:100EB000002C0CD188420AD9013803782E2BF9D1A5
:100EC00005E0884203D9013803782E2BF9D1013D82
:100ED000F7D2FE69441A251C002E01D0751C2D196D
:100EE0002B1C6A460E33DB08DB00D31A9D46181C08
:100EF000221C3B612BF001FF002E08D02E233A6903
:100F00007969135501341019321C2BF0F6FE38693B
:100F1000291C08F0EFFF012804D17949794828F00D
:100F2000F7FF5FE006243B69C0000443FD617B617D
:100F3000201C0BF055FD0EF00DFD051E15D02E21C9
:100F400078692BF0E4FF011C281C002900D1D0E0B7
:100F5000694BFA689A4200D0CBE07B69C91A181C29
:100F600008F0C8FF0EF0F6FCC3E018220823BA18F8
:100F7000D0181033FA184021D21825F0CEFF0126E0
:100F8000BD603D612C1C04E07B699B5D2E2B05D070
:100F90000136FB699E4200D9A5E0F5D1311C786984
:100FA00008F0A8FF18220823BA183860D01825F0D6
:100FB000DDFF18220823BA18002815D1D018321CDA
:100FC000796925F06AFF18220823BA18D018FFF7AC
:100FD00025FF78607B68002B13D14A484A493A685C
:100FE00013F042F914F0E1FFD0182F2108F008F9AE
:100FF0007B693A691820991808233818B21AC01862
:10100000DFE738680EF0A6FC041E57D138680EF0F2
:1010100067FCFB69041C9E4208D13C4BFA689A426B
:1010200004D180686E215E2228F033FF7B68012B9B
:101030003DD118220733BA18D01825F090FF182296
:101040000823BA187860D01825F090FF0022011C00
:1010500078680BF0A3FC1221021C201C05F00CF890
:1010600018220823BA18D0182F2108F0C9F818221E
:101070000823BA18D018264925F0C6FF18220823DD
:10108000BA18D01825F0A4FF29F048F8022806D194
:1010900018220823BA18201CD118FFF79FFE182227
:1010A0000823BA18D0180C2125F0EDFF06E018220D
:1010B0000823BA18201CD118FFF790FE002D0AD083
:1010C0003A697B69B11A981808F014FF221C011CB8
:1010D000281C04F0D1FFBB68002B00D1BC60731C3E
:1010E0003B61251C54E7044BFA68201C9A4200D14E
:1010F000B868BD461DB0F0BD20F30200940B00207F
:10110000344C0300CC330300534C0300D8F70200E7
:10111000684C0300F0B5456887B00393AB6805A839
:101120000F1C0292059326F043FE061C05A826F02C
:101130003FFE0323321C584309321018800025F06B
:101140004AFB041C094BAA6803606B68291C4360B6
:10115000059B06629B1AC360039B083000933A1CF0
:10116000029B08F061FB201C07B0F0BD30DE0200DE
:1011700038B5051C88680C1C25F05CFC0349021C72
:10118000231C281C29F0D8F938BDC046744C030034
:1011900010B5041C082025F01EFB024B44600360C0
:1011A00010BDC046E8DD0200F8B5041CC0680E1C86
:1011B000002801D118602FE0201C111C626920302A
:1011C0001D1C824208D1154A964206D01449154882
:1011D00028F09EFE14F0E9FE1660201C124E636893
:1011E0000830776873600FF079FB7760012806D0CC
:1011F0000023E360022809D063691B680BE0636980
:101200001B682B60002B07D1E36005E0236A0733DE
:101210009B00E41863682B60F8BDC04620F3020011
:10122000924C030014350300940B002013B501AB5E
:10123000141CFFF7B9FF01280DD0184C02281CD050
:10124000019BA34228D0002B26D0012101AA1448DB
:1012500028F04BFE0DE0002C0DD0201C10F046FABB
:10126000104901F0C7FA002805D00F480F4928F0AF
:101270004FFE14F09AFE01980FE0019810F036FA34
:10128000074901F0B7FA002801D10198F1E7019868
:1012900012F0CAFFA042F8D1002016BD20F30200D0
:1012A000D0320300C835030060300300C84C03008F
:1012B00010B50C1C022801D1486800E0886805F0D0
:1012C000C7FB0649021C2068FFF7B0FF002804D1C5
:1012D000034828F010FE14F068FE10BD20F3020051
:1012E000D032030008B50022FFF7A0FF002804D188
:1012F000024828F000FE14F058FE08BDD03203006A
:1013000008B502490022FFF791FF08BD20F3020053
:1013100013B5124C124A211C01ABFFF745FF0128FF
:1013200002D0022805D017E00E490F4828F0F0FD42
:1013300010E0019810F0DAF90C4901F05BFA00288E
:101340000AD1019810F0D2F9094901F053FA0028A6
:1013500002D1019814F029FE201C16BD20F30200D2
:10136000E0300300C84C030060300300C8350300C0
:10137000D0320300014B58687047C046940B0020E0
:10138000014B18687047C046940B0020F0B5194E09
:1013900087B03368051C00200C1C019328F040FD29
:1013A00030600090206824F006FD019B071C33602C
:1013B000114E022D03D0A06810F098F9061C211CD4
:1013C00063680831A81E03930DF002F8009B049097
:1013D0000593301C03AB0321002204F077FD074B7B
:1013E000041C9F4203D0381C211C29F0B2F8201C99
:1013F00007B0F0BD940B0020FCE2020020F30200D5
:10140000F8B50326051C071C3540022D15D10E4BDF
:101410000340062B11D0FF23DB05C418B443201C66
:10142000002119F02FF800280BD080231B06E018AC
:10143000B043064B2843C01804E0381C06F0F0FB0C
:1014400000E0381CF8BDC046070080FF0000808027
:1014500010B504F035FE041C201C04F07FFE0028AB
:1014600005D010F06DFB0028F6D1024800E00248DC
:1014700010BDC046D8F7020094F7020010B504F082
:101480001FFE041C201C04F069FE002805D010F08B
:1014900057FB0028F6D0024800E0024810BDC046C5
:1014A00094F70200D8F7020007B5044B0190694693
:1014B0000220002200930CF09DFC0EBD06040000EB
:1014C00008B510F099F9034B002800D1024B181C05
:1014D00008BDC04694F70200D8F7020037B510F0F7
:1014E000EFF901AB7F2802D8187001213CE02149B7
:1014F000820988420AD8402149420A431A703F2291
:101500001040BF3A1043587042312DE01A49040B85
:1015100088420ED8202149420C431C7080245F3140
:101520000A4064420840224320435A7098703C3974
:101530001AE01249884211D81025810C6D422943C6
:1015400019703F21703D0C400A4008402C432A434B
:1015500028435C709A70D8703B3905E00849094807
:1015600028F0D6FC14F021FD181C01220BF016FA0D
:101570003EBDC046FF070000FFFF0000FFFF100058
:10158000E84C03002430030008B5021C02490A207D
:1015900004F024FE08BDC046BE04000008B5021CCD
:1015A00002490A2004F01AFE08BDC0463E050000AC
:1015B000F0B585B002900192101C0C1C002232493B
:1015C00003930AF033FD0090002801D04368009394
:1015D000029B012B03D000252E1C01953CE02068C6
:1015E000002404F06DFD271C0290029804F0B6FD63
:1015F000051E17D0009B2E1C002B04D0181C291C84
:1016000024F0E0FB061C002C09D00398311C3A1C86
:1016100004F0E4FD1D4B984201D0251C3E1C2C1CFF
:10162000371CE2E7221E2BD1019819490AF0FEFC73
:10163000002801D0426823E01649174828F068FCCA
:1016400014F0B3FC009B002B0AD12768002E0DD1AB
:101650002668019701350434029B9D42F2D10EE0C9
:101660000098216824F0AEFB071CEFE70398391CB3
:10167000019A04F0B3FD054B9842EBD1E8E7321C28
:10168000101C05B0F0BDC046D606000094F702005D
:101690001E050000094D03002430030037B501A9E1
:1016A000051C0BF033FE1E4B041C2B40062B05D0F3
:1016B000AB072AD12A681B4B9A4226D1201C0199DC
:1016C00028F078FC0190012822D1207843B2002B29
:1016D00004DB012320784000184320E07F230134FD
:1016E00018403F3B184202D098435B10FAE722783B
:1016F0003F23111C9943802904D1800113400134F8
:101700001843F4E725F0F0F909E0019B012BE0D044
:101710000549019A054812F0A7FD14F046FC3EBDAC
:10172000070080FF28250300224D03001435030025
:10173000F0B587B0141C02900391101C23490022BD
:101740000AF074FC2249051C0022201C0AF06EFCE1
:101750000123041C049305931E4F002D07D06868D5
:101760001D4B984203D004A90BF0D0FD071C1B4D64
:10177000002C07D06068184B984203D005A90BF0E5
:10178000C5FD051C0024029B154E9C4212D0002C66
:1017900007D00023301C00930193391C049A14F0E5
:1017A000C5F8039AA300D158301C00220FF0B8FFEF
:1017B0000134E8E70023301C00930193291C059AAB
:1017C00014F0B4F8044807B0F0BDC046EE050000C0
:1017D000F605000045CC030020F30200D8B003005A
:1017E000B03A03007FB50D4DA84214D0041C0C4E36
:1017F0000122301C211C0FF093FF0A49301C28F0F5
:10180000CFFD04230293084B0394DB6907480321AF
:1018100002AA01939847281C04B070BD20F302006F
:10182000B03A0300D8B00300E0180300ACDE0200B9
:1018300010B5041C86B002A86A46102107F0D4FC3B
:101840006846211C01220FF06BFF02A902480BF031
:101850006FF806B010BDC0462825030070B50C68AF
:10186000031C201CE2074AD4A20703D1244A25689E
:10187000954244D0012B1FD9486810F021F8061C6E
:10188000201C10F081F8051C301C19F0FFFC011C15
:101890001C481CF03FFE041C211C281C19F026FAD1
:1018A0001CF0EAFA211C19F02FF803239843013B9E
:1018B0001843154BC01822E0201C10F065F8061CD8
:1018C0001CF0DAFA051C19F0C1FC291C041C301CA0
:1018D00019F03EFBFC218905051C18F0CDFD002800
:1018E00001D0013406E0BF21281C090618F0C4FD10
:1018F000002801D001239C43201C25F0F5F870BD81
:10190000B0F80200000020410000808013B5041CE4
:10191000081C0BF065F86A46011C201C04F054FBFF
:10192000009B0248002B00D1014816BD94F702002D
:10193000D8F7020037B50024022800D98C6848681F
:101940000D680BF04DF8094B011C002C00D0084B22
:10195000281C6A4698470098002805D0019900295C
:1019600003D011F0C7FD00E0201C3EBD296000003F
:10197000C95F000038B5051C081C141C0BF030F8BA
:10198000221C011C281C04F077FB014838BDC0460E
:1019900020F3020008B504F0BBFB002804D1034883
:1019A00028F0A9FA14F001FB08BDC046D0320300AC
:1019B00030B50B1C85B0141C012805D90A490B4809
:1019C00028F0A6FA14F0F1FA09480121C268019240
:1019D000019D0022A84703A90390221C012013F0B7
:1019E000F9FA039805B030BD5C4D030014350300CF
:1019F00084380300F8B50E1C002803D12A4B041CC0
:101A00001D6823E0086883070AD10368274A9342C8
:101A100003D127F07FF9051C0EE0254A934201D03F
:101A20000FF064FE856B002D06D02A68214BD31A77
:101A3000594259414B421D4030680FF057FE1E4B32
:101A4000C26800249A4201D1346804340020011C89
:101A500028F036FC0027061CBD4209D10025AC4207
:101A600016D11FE0EA68FB009958002904D101371C
:101A7000AB689F42F6D3F1E70429F8D0301C13F08D
:101A800045FAF4E7A268EB009958002904D1013522
:101A900063689D42F6D305E00429F8D0301C13F0AA
:101AA00035FAF4E7301CF8BD940B0020E018030071
:101AB000FCE20200342E0300752400008023044A57
:101AC0005B051B69107858438023DB02181A7047A6
:101AD000F40700208023044A5B051B6910785843F3
:101AE0008023DB02181A7047F307002038B5084D31
:101AF000C4012B680021181924F009F82868054B47
:101B000000197F3000781B788342F0D238BDC04680
:101B100028010020F507002010B5C379041C002B14
:101B200008D0064B00791B68C00118180130A17954
:101B300023F0EDFF0023237210BDC04628010020D2
:101B400008B50349034828F0E3F914F02EFAC0461B
:101B5000874D030024300300021C124B10B5186897
:101B60005379DB01C3181C1C7F342178FF2908D16D
:101B70001179C90141184978FF2910D0907988421C
:101B80000DD091795B1801315878CBB27E2B01D002
:101B9000937106E0002393712378537101E00120D3
:101BA000404210BD2801002038B5F8239B021A7866
:101BB0004D2A01D08023DB02802580206D052C6911
:101BC000C002644223402C6929691C1B001B18F0C9
:101BD00087FA2A4B2A4A18702B69E518AD185B4220
:101BE0001D402849284B294A5B1A9B188022520520
:101BF0009D4202D21369ED18F3E78020C0021169FB
:101C0000401B18F06DFA0122214B641B1870E4117F
:101C1000204BE4B21C70204B1A6000221F4B5A600C
:101C200059681D4A0029FBD0A123DB00D358DBB241
:101C3000A342F2D21A4901330B7001235360FFF71C
:101C40003DFF0378051C174CFD2B09D180235B0554
:101C50001869154BC009C018C001281820600BE096
:101C6000FFF738FF0378803DFD2B04D0FFF732FFEC
:101C7000FD2123F04CFF256038BDC046F30700204E
:101C8000FF87FFFF00000020080100208CD8030020
:101C9000F4070020F507002000D00040FCD00040F1
:101CA000F207002028010020FFFFFF01F0B585B0FA
:101CB000264E274A3478274D201C13782968013393
:101CC00002960392C201525CFF2A3DD00130C0B29D
:101CD000984200D10120A042F4D1802300275B0567
:101CE0001B69DB090193E3010093009A2B689E189E
:101CF0003278301C53425341FF1823F01EFF002856
:101D000009D00023019A934218D0DA01B25C002A6C
:101D100001D10133F6E7039B01341B78E4B20133B0
:101D20009C4200D10124029B1B78A342DBD1072FE8
:101D300002D922F00DFCBBE7FF2005E02868009BDC
:101D4000C01823F0F0FE201C05B0F0BDF207002003
:101D5000F507002028010020F7B5071C0D1C012401
:101D60000E4B1B7801930E4B1E68019B9C4211D8B1
:101D7000E10171180B78FE2B09D18B78AB4206D1AB
:101D80000331381C2A1C2AF0A9FF002804D0013492
:101D9000E4B2EAE7FF2000E0201CFEBDF5070020CA
:101DA0002801002008B5054A03791268DB01D31821
:101DB000D81C997800220AF0F1FD08BD2801002006
:101DC000F0B585B002900D1C161C0393782949D8F4
:101DD000FFF7C2FF041C002E26D0FF2801D0FFF71A
:101DE00085FEFFF763FF041EFF2C05D11F49204825
:101DF00028F08EF814F0D9F81E4FC0013B6801900E
:101E0000FE21181823F083FE3B68019AE9B2981866
:101E1000023023F07CFE3868019B0299C018033021
:101E20002A1C02F0D1FF02E0331CFF281BD00C203B
:101E300024F0D1FC039B002B01D00F4B00E00F4B93
:101E400003600C4B04711B684471E4011C19A378F6
:101E5000C67102338371012303726B461B7B43728D
:101E6000031C00E00023181C05B0F0BDA44D0300C6
:101E7000D431030028010020B41C0300FC1C030023
:101E800007B501A90BF042FA0199FFF765FFFF289A
:101E900005D10549054828F03BF814F086F8FFF70E
:101EA00025FE03480EBDC046BA4D0300D4310300E1
:101EB00020F30200F7B50192027A061C0091002A75
:101EC00001D1FFF73DFEC579002D06D1214A1768E3
:101ED0000279D201D25D002A23D1092201201A60A1
:101EE000404236E03279D201BA185278FF2A24D023
:101EF000D21A944200D9141C019A521B944200D960
:101F0000141C002C24D0009AC91850190131221C2D
:101F10002AF0F3FEB379E318DBB27E2B0FD0B37156
:101F20002D1971797E24C90179180A1C7F32B37981
:101F30001278E41AFF2ADFD1D4E70024DCE700237B
:101F4000B3717379DB01FB187F331B787371E7E79B
:101F5000281CFEBD28010020F0B585B00393037A4C
:101F6000041C01910292002B01D1FFF7E9FDC37916
:101F7000002B07D02B4A03791268DB019B5C029F80
:101F8000002B1CD1092341E060793368C001181887
:101F9000291C7F3023F0BBFD3368ED0158196179AE
:101FA00023F0B5FD63793268DB01D3187F331B78EA
:101FB0006371009A019B944663440193BF1A002FFA
:101FC00029D07E22A3790097D21A974200D9009295
:101FD000144E60793268C0011018C018009A0130A0
:101FE000019902F0F1FEA379009AD318DBB27E2B9F
:101FF00013D10023A371FFF759FE051EFF2DC3D196
:102000002079FFF773FD002323721C230120039A1C
:102010004042136003E0029801E0A371C9E705B0F4
:10202000F0BDC04628010020002038B5011C28F072
:1020300047F90124051C0C4B1B78A34212D30B4A11
:10204000E3011268D3181A78FE2A08D19978D81CAF
:1020500000220AF0A3FC011C281C12F057FF0134D7
:10206000E4B2E8E7281C38BDF5070020280100206D
:1020700013B501A90BF04AF90199FFF76DFEFF288E
:1020800005D10F490F4827F043FF13F08EFF0E4B89
:102090001C68C301E31859789B780233DAB2002335
:1020A000C00120187F300078FF2803D09B1A7E33B0
:1020B0000022F5E7881AC01824F016FD16BDC046A8
:1020C000BA4D0300D43103002801002008B5024AAC
:1020D000024B27F053FA08BD591B0000191B0000E2
:1020E000F8B5041C0D1CA368002B0AD0334AE9681C
:1020F000914206D0EB58002B03D00422E3681A600B
:102100005AE0A86B002820D0062163680430DB0069
:102110001943002209F08AFF031E16D0227C002AF0
:1021200002D0002021680BE02068002807D0234A55
:10213000E968914203D0224A954200D00069291CE7
:102140005A68E36803F0FEFE36E02368002B03D1F3
:102150006E6B002E14D12FE0227C002AF8D1174A92
:10216000E9689142F4D0164A9542F1D01869616845
:10217000E26803F029FFE3681B68002BE8D01BE04E
:1021800075680836002D17D000276B1E0C4A9F4239
:102190000CD2BB00F158914206D0201CFFF7A0FFE3
:1021A000E3681B68002B07D10137EEE7054BED18FC
:1021B000AD00AD59954296D1F8BDC04675240000DA
:1021C00048380300FFFFFF3FF0B5146889B0002CCA
:1021D0001FD143685E6B002E1BD0171C736803ADC4
:1021E00001938368083603936960AC60EA602C74DD
:1021F000019B9C4209D0A300F158281CFFF770FFF7
:102200003B68002B05D10134F2E7281C0249FFF797
:1022100067FF09B0F0BDC0464838030008B50B1C85
:1022200002495A6828F088F908BDC046C94D030024
:1022300070B50E1C00218AB0041C151C05A81422C0
:10224000009101912AF076FD202307936B460594B7
:1022500008931C23002D02D0042D07D11A232168D6
:1022600005A80693FFF73CFF022106E01B23216827
:1022700005A80693FFF734FF03210098042805D131
:102280002069311C2A1C0FF0A7FC0DE000280BD0A0
:1022900002AB002202940396049503F017FE031C80
:1022A0000248042D00D1181C0AB070BD20F30200B2
:1022B000F0B5204B82008BB0D25805AE002372607F
:1022C0001422019003AF05910D1C301C0968039383
:1022D0007B60B260F7603374FFF702FF039C042C4D
:1022E00005D10198296903F087FD041C1EE0002C2C
:1022F0000DD0201C291C23F065FD019B041C022B22
:1023000014D10FF009FB0124400004430EE0019BAF
:10231000022B0BD12433301C29687360FFF7E0FED9
:102320003B68002B02D101246D002C43201C0BB014
:10233000F0BDC04680E40200F0B5161C7242724146
:1023400089B00C1C1F3200230492082201A903AD9E
:102350000691071C2168281C019302932B74039497
:102360000592FFF7BDFE019B002B08D1002E06D180
:102370001F33281C21686B60AE60FFF7B1FE019827
:10238000042819D120690FF0B1F9164BC2689A429E
:102390000ED1002E07D02368586825F0BFFD011C20
:1023A000381C27F0FDFF8022381C324321690BE0E6
:1023B000381C2169321C07E0002808D0211C23F0BA
:1023C00001FD0022011C381C0FF0AAF908E0201CB6
:1023D00026F014FD0449021C231C381C28F0ACF81C
:1023E00009B0F0BD51410100D64D030038B5041CC1
:1023F0000D1C0B4927F0D4FF6968201C00220FF048
:102400008FF9201C074927F0CBFFA968201C002268
:102410000FF086F9201C044927F0C2FF38BDC046E2
:10242000E84D0300F14D030097B60300F7B5002512
:10243000436808300F1C061C2C1C0193019B9D4215
:1024400012D0AB00F358094A93420BD0084AD9681E
:10245000914202D03B60013404E0586B391CFFF715
:10246000E5FF24180135E9E7201CFEBD48380300CC
:1024700075240000F0B58FB0051C0F1C406B05A93A
:1024800001920293FFF7D2FF061DB600301C24F024
:10249000A2F9041C002120C025F0A2FF321C201C40
:1024A000103A103000212AF045FC012F05D1029B83
:1024B0001B680393042B00D183E00922002309A8A1
:1024C000426007AE0332291C8260C6600374079322
:1024D00073600993FFF704FE0798042807D1059855
:1024E000391CC668019A029BB047206123E000288E
:1024F00021D0019A3A4306D1012106AB069503F09B
:10250000E5FC041C17E0019B5C003C190134A400AD
:10251000201C24F060F9221F0390029920C02AF0A9
:10252000ECFB791C3068019A039B03F0CFFC041C80
:10253000039824F077F9201C0FF0D8F8A84240D176
:102540000023082209A8291C089307930B930994D8
:102550000A92FFF7C5FD079B002B32D00199394342
:1025600005D1081C07AA23F035FC061C1CE0019BC2
:102570005E00BE190236B600301C24F02CF9321C65
:10258000051C079B083A03600393089B029943606C
:1025900008302AF0B2FB381C01992A1C23F01AFCDF
:1025A000061C281C24F03EF9074B9E4209D0301C23
:1025B00026F024FC0549021C054811F055FE13F0D5
:1025C000F4FC201C0FB0F0BD20F30200F44D03001A
:1025D0001435030038B5C568041C002D06D1044924
:1025E0006268044811F040FE13F0DFFCA84738BDD4
:1025F0001C4E030014350300F8B5041C0F1C161CF8
:102600001D1C22F00BF8002809D1201C26F0F6FB37
:102610000949021C094811F027FE13F0C6FC0428E2
:1026200001D1206902E0211C10F064FF391C321C2A
:102630002B1C03F04BFCF8BD394E0300143503008E
:10264000F0B5154B89B0161C8200D5580C1C0C2215
:102650000021071C68462AF06DFB182303A845607B
:10266000836000256B462168C36005740394FFF7FF
:1026700037FD0098042805D1381C2169321C03F06D
:10268000ADFD07E0002805D00120291C6A4602960E
:1026900023F0A0FB09B0F0BD38E30200F0B585B02F
:1026A000071C0D1C081C161C01A902AA26F0C1F962
:1026B0000023019902988B420CD09A008258D4686A
:1026C000002C05D123495268234811F0CDFD26E0A6
:1026D0000133F0E73C2024F090F8204B041C036009
:1026E0001F4B476083601F4B4563C3601E4B86636F
:1026F00003611E4B03A943611D4B83611D4BC361E5
:102700001D4B03621D4B43621D4BC362281CFFF728
:102710008DFE012805D910481A4927F0F9FB13F05E
:1027200044FCA36B4E21181D002209F07FFC051EFE
:102730000DD0032243681A4009D11B685B68F22B55
:1027400005D1031D0121104821F0C3FF6860201C42
:1027500005B0F0BD554E030014350300FCE2020045
:102760003923000075240000F9250000B122000083
:102770004126000047460200312200009747020030
:10278000534702007E4E030038E4020037B51C1C9C
:1027900000230D1C0093081C0333111C012211F0AF
:1027A000C3FE012D09D0032D0BD120680AF018F9C2
:1027B0006168A268FFF772FF09E020680EF096FFDB
:1027C00005E00349034827F0A3FB13F0EEFB3EBDF1
:1027D000AC4E03001435030038B5051C0C200C1C4E
:1027E00023F0F9FF024B45600360846038BDC046AA
:1027F000C0E30200F8B50F1CB8421ED00324044009
:102800001DD1134B02689A421BD1466B002E1AD081
:1028100075680836002D18D06B1E9C4208D2A300A4
:10282000F058391CFFF7E6FF00280FD10134F3E719
:10283000084BED18AD00A859DEE7012006E00020A6
:1028400004E0201C02E0301C00E0281CF8BDC0465B
:10285000FCE20200FFFFFF3FF0B585B0051C0191CF
:10286000081C8B0710D10B68154A934204D1012331
:10287000029301AB03930DE0124A934204D102A9E3
:1028800003AA26F0D6F805E00F49104827F040FBD0
:1028900013F08BFB0024029E039FB4420BD0A300D5
:1028A000F9580B4B994208D0281CFFF7A3FF0028CA
:1028B00003D10134F1E7074800E0074805B0F0BD57
:1028C000FCE20200D0160300C84E030014350300DA
:1028D00048380300D8F7020094F7020008B58307D0
:1028E00003D1064B02689A4205D00549054827F0F6
:1028F0000FFB13F05AFBFFF7AFFF08BDFCE202002D
:10290000014F030014350300F0B58BB0079310ABF3
:1029100080CB041C01911B78062A11D8012A05D905
:102920003F230B700B1C0133019301E0002A02D0FE
:10293000002301990B7001239342AD4168423BE2B1
:10294000002809DA019B0199013300932D230B70B4
:1029500080231B06C41807E001990091002B03D0C7
:102960000131009101990B70FF21C905081C019BE1
:1029700020400993231C88421FD12023079A0099E5
:102980001A40131C64024E22CD1C002C09D1009861
:102990005A40492142704622594053400170837089
:1029A00007E000991A430A7041214B4000994B708F
:1029B0008A7000232B70019BD0E1002F00DA0627DC
:1029C000551E0099019A521AAD18202207991143F9
:1029D0000291672903D1002F12D1012710E0002BAB
:1029E0001DD1029B662B0DD17B1CAB4200DBAF1EC1
:1029F0006623039300237D1C049305931E1CE9E0CA
:102A0000002B0CD17B1DAB4200DBAF1F029B652B63
:102A100000D0CDE003933A3B00250493CCE0B64AC6
:102A2000934271D8201CB54917F04AFD431E9841C6
:102A3000002620233030059004930396B04B211CD0
:102A4000F05817F033FD00280AD0049A039B9446EF
:102A500063440393AB4B201CF15818F047F9041C56
:102A6000049B04365B100493182EE7D12D230493A6
:102A7000A14B039EA34213D3201CA04917F020FDB5
:102A8000002804D0002E09D12B23049306E0201C3B
:102A90009D4918F02BF90136041C01E0FE24A40521
:102AA000029B662B03D0672B24D1042E22DC6A46BE
:102AB000009B127D1A70029B672B01D1731EFF18B9
:102AC0007B1CAB4200DBAF1E002F00D155E12E2353
:102AD000009A3D1C5370131C0233013E0093002EDC
:102AE0006DD0002D04D03022013D1A700133F4E77F
:102AF000049565E06B1FBB4200DD48E1029A672A3E
:102B000063D0AF1F131C62E00026202303960493BA
:102B10007C4B211CF05817F0BFFC00280AD0049A07
:102B2000039B944663440393754B201CF15818F0A3
:102B3000DDF8041C049B04365B100493182EE7D1C7
:102B4000201C7149039E17F0BBFC002805D0201CF7
:102B50006E4918F0CBF80136041C029B662B0AD193
:102B6000AE420BDAF3190133AB421ADBAD1BAF1ED9
:102B700017D56F1E15E0029B652B05D16B1FBB425D
:102B800000DDEDE0AF1FEBE0029B672B00D00CE116
:102B90003B1DAB4200DB6F1FBE4200DBE7E0F343AF
:102BA000FF180023BD190493013505966633DCE058
:102BB0000025029B0495039305952E1C0AE00496BC
:102BC00001235B4205936733CFE01F1C029B002566
:102BD00003930595FB43DB171F40039B652B01D136
:102BE0007D1C06E0039B672B03D13D1E01D101250F
:102BF0002F1C00230693069BAB4225DA201C18F0FD
:102C000025FB009B009A01330893031C303313709B
:102C1000059B069A934207D1002F05D0009B009A8E
:102C2000023308932E23537018F030FB011C201C34
:102C300018F08EF9344918F059F8069B041C01333A
:102C40000693089B0093D6E7029B009D662B02D15A
:102C5000012E62DCA1E0201C2D4917F031FC002878
:102C60003FD0009B013B1A782E2AFBD0111C303933
:102C7000092902D9013301930AE0392A03D001322C
:102C800001931A7004E030221A70019A9342E9D13C
:102C9000019B1B78302B1CD1019A52782E2A0BD124
:102CA0000399662908D001994B70049B0A702D2B5B
:102CB00001D1013E00E00136009D01352B1C019A37
:102CC000934204D95A1E11781970131CF7E7312367
:102CD0001370094B9C4204D8039B663B5A425341F4
:102CE000FF1A029B672B18D1002F16DD6B1E1A7876
:102CF000302A0FD11D1CF9E7FFFF7F3FF8FF7F3F10
:102D0000C0E40200A8E4020000002041CDCCCC3D8C
:102D10000000A0402E2A00D11D1C049B002B1AD0BD
:102D20002023079A0A211A40131C452213432B70B3
:102D30006B461B7C301C6B7017F062FA0A2117F08F
:102D400045FB3031A970301C0A2117F03FFB2C1DC8
:102D50003031E970251C00232B70099BE81A2BE009
:102D60002B230025049305953A33039332E7672319
:102D700003933C3B002504932BE7009B049701330E
:102D8000009301235B4205936733039303E0029BA7
:102D900003930023059300251FE7201C074917F024
:102DA0008FFB002800D05CE7B7E7029B0025039368
:102DB0002B230595049310E70BB0F0BD0000A04055
:102DC00008B50EF0E1FD1AF0DDF80022074B19F00E
:102DD00053FA074B074A18F011FE1AF027F903239C
:102DE0009843013B1843044BC01808BD008066405F
:102DF000FB210940182D44540000808008B50EF0D6
:102E0000C3FD1AF0BFF8084A084B19F035FA084B11
:102E1000002218F0F3FD1AF009F903239843013B4F
:102E20001843044BC01808BD182D4454FB21094019
:102E3000008066400000808008B50EF0A5FD034BC1
:102E4000184002231843024BC01808BDFCFFFF7F47
:102E50000000808008B50EF097FD1AF07FFF034B4D
:102E6000002800D0024B181C08BDC04694F7020091
:102E7000D8F7020008B50EF087FD1AF06FFF034B7C
:102E8000012800D0024B181C08BDC04694F7020070
:102E9000D8F7020008B50EF077FD1AF05FFF034B7C
:102EA000012800D8024B181C08BDC04694F7020048
:102EB000D8F702001FB5002301930EF065FD01A9AC
:102EC0001AF0BCFF0322031C02209343064903436C
:102ED0005B180293019B934303435B1802A903937E
:102EE0000BF076FA05B000BD0000808038B50D1CEF
:102EF0000EF04AFD041C281C0EF046FD18F0A6F941
:102F0000011C201C1AF076FF03239843013B184351
:102F1000014BC01838BDC046000080801FB500239B
:102F200001930EF031FD01A91AF038FF03230224AA
:102F30009843074B2043C0180290019823F0D4FD1A
:102F400002A90390201C0BF043FA04B010BDC04648
:102F50000000808038B50D1C0EF016FD041C281CE6
:102F60000EF012FD011C201C1BF0F4F90323984302
:102F7000013B1843014BC01838BDC046000080809B
:102F800038B50D1C0EF000FD041C281C0EF0FCFCD6
:102F9000C00FC30760004008184303239843013B58
:102FA0001843014BC01838BD0000808038B50D1C97
:102FB0000EF0EAFC041C281C0EF0E6FC011C201C90
:102FC0001BF050F903239843013B1843014BC018F1
:102FD00038BDC0460000808008B50EF0D5FC1AF060
:102FE000C3FC03239843013B1843014BC01808BDA1
:102FF0000000808008B50EF0C7FC1BF0E1F8032349
:103000009843013B1843014BC01808BD0000808065
:1030100008B50EF0B9FC1BF081F803239843013B7F
:103020001843014BC01808BD0000808008B50EF0A1
:10303000ABFC1AF0EFFF03239843013B1843014B0D
:10304000C01808BD0000808008B50EF09DFC1AF085
:103050009FFF03239843013B1843014BC01808BD51
:103060000000808008B50EF08FFC1AF0E5FD032308
:103070009843013B1843014BC01808BD00008080F5
:1030800008B50349034811F0EFF812F08EFFC0466F
:10309000244F03002430030070B5061C08680D1C83
:1030A0000EF072FC0021041C17F0F6F9002801D084
:1030B000FFF7E6FF201C1BF0AFF9041C012E06D120
:1030C000032302209C430D4B0443E01815E068687D
:1030D0000EF05AFC0021051C17F0DEF90028E7D19C
:1030E000281C1BF099F9011C201C17F00DFC032370
:1030F00002249843014B2043C01870BD000080801B
:1031000008B50EF041FC1BF0B1F803239843013BD6
:103110001843014BC01808BD0000808038B50D1C55
:103120000EF032FC041C281C0EF02EFC011C201C8E
:103130001BF0F0F903239843013B1843014BC018DF
:1031400038BDC0460000808010B50EF01DFC002187
:10315000041C17F097F9002801D0FFF791FF201CFD
:103160001BF080FB03239843013B1843014BC0181D
:1031700010BDC0460000808008B50B1C02495A688B
:1031800027F0DAF908BDC046487E0300F7B5CC1C2D
:10319000A400071C201C0E1C019223F01CFB221C07
:1031A000051C054B4760866003600C3A01990C30A2
:1031B00029F0A3FD281CFEBD44E7020010B5041C45
:1031C000081C21F0B0FB031C002C04D0012C07D1FB
:1031D0004000204305E00348002B02DC024800E0E9
:1031E000002010BD94F70200D8F7020070B54568C2
:1031F000C6688468102023F0EEFA034B4560C66071
:103200000360846070BDC046BCE7020038B50D1C89
:10321000041C6A680749AB6827F08EF9EA68201C2D
:10322000012A03D1044927F0BBF802E0034927F043
:1032300083F938BD364F0300FFCA0300434F030034
:1032400030B5041C87B00020042A30D1201C0D1C8E
:1032500021F069FB011CAB071DD1164B2A689A426D
:1032600019D1291C03AA09F0DDF9102023F0B3FAC3
:10327000114B039A0360E36861685A435218426035
:10328000049A111C5943019262688A188260059A57
:103290005343C3600BE0002320682A1C0EF0E8FBB8
:1032A000E36858436368C01801234000184307B01F
:1032B00030BDC04658F7020080E7020008B50B1C7D
:1032C0004179021C012904D1C06A191C23F022FD96
:1032D00004E0006B0249D26A23F058FD08BDC046E5
:1032E000C4F2020008B50B1C4179021C012904D16B
:1032F000C06A191C23F02EFD04E0006B0249D26A5B
:1033000023F044FD08BDC046B4F2020008B50B1C12
:103310004179021C012904D1C06A191C23F01AFD4D
:1033200004E0006B0249D26A23F030FD08BDC046BC
:10333000D4F2020008B53F22014B21F0C9FB08BDC1
:10334000E154020008B59122014B21F0C1FB08BDF8
:10335000F1440000F7B5041CC579868A0F1CC18AA8
:1033600000200191E071A082E082111C201C1A1C37
:103370000F4B21F0ADFBA368002B18D1E18A002987
:1033800008D0A38A002B05D1206B23F010F9206B05
:1033900022F09FFFA38AE28A201C391C21F048FBFF
:1033A0006B1E9D416B469B88E571A682E382F7BD4B
:1033B000F540000038B58368002B0BD1041C0D1CB0
:1033C0000548111C26F0A4FDA060201C291C0C300F
:1033D00021F0E3FB38BDC0468C350300F0B58DB05D
:1033E0006B4601921B79041C43710123E162036166
:1033F0000B780D1C012B02D000219B4A46E0019B5B
:10340000012B07D9836B01991E68231C406B2A1C72
:103410000833B047AB68181C049326F0E6FB6379C9
:103420000490032B0FD109900C2109A826F0F6FB7C
:10343000A36B021C9B68606B09999847A36868831B
:10344000002B00D009E1049826F0CFFB049003780C
:10345000011C002B23D00A3B0F2B1CD809A921F0FB
:10346000BBFA099B772B14D004D803220292312B8C
:1034700017D008E0812B04D002220292992B10D0A1
:1034800001E001230CE0201C0499784AFFF792FF29
:10349000E8E0002304E0201C754AFFF78BFF0223BD
:1034A0000293049826F0A1FB5A21049004A826F068
:1034B000B5FB049D0390039B9D4200D1C2E004959F
:1034C0002B78432B00D1B8E0392B03D0201C049972
:1034D000684ADBE7281C05A926F091FB0378061C47
:1034E000912BF3D126F081FB059B9842EED1301C45
:1034F00005A926F084FB0378071C0A3B0F2BE5D8AF
:1035000026F073FB059B061E9E42DFD00378A02B9E
:10351000DCD126F06AFB059B9842D7D106A9381C5E
:1035200021F05AFA301C26F065FB9C21079007A871
:1035300026F074FB011C079826F04BFB069B061C2B
:103540002E2B1FD1012804D1079803780A3B0F2B9B
:1035500003D9201C0499484A98E72669731C236103
:10356000019B012B66D909A921F036FAA36B606B88
:10357000DB68311C099A984700285BD1201C04990C
:103580003E4A83E72F2B15D1012803D107980378F2
:10359000032B03D0201C0499394A77E7019B012BA8
:1035A00048D9A36B676B1E6926F0FFFA011C381C13
:1035B000B0473FE0302B27D1012803D90798037883
:1035C000032B03D0201C04992E4A5FE7019B012B9B
:1035D00030D908A926F0DAFA01270790079803786E
:1035E000032B03D0201C0499274A4FE709A926F092
:1035F000CDFAA36B07905B69606B0899099A013754
:103600009847B742EAD115E0019B012B12D9032854
:1036100000D95BE7079B181C099326F0E6FA0A908D
:1036200026F0E3FAA36B0B909F69606B0699321C3E
:1036300009ABB847A368002B0FD1281C26F0D5FA98
:10364000051C38E76379012B04D9A36B606B5B68B9
:1036500002999847A368002B04D0201C04990C30D1
:1036600021F09BFA0DB0F0BD544F0300784F0300DA
:10367000854F0300AD4F0300D04F0300EC4F030014
:10368000FC4F0300185003003D50030008B5024AE8
:10369000FFF790FE08BDC0465F50030030B50B78C1
:1036A00085B04C1C002B7AD00C1C051C032B09D1B7
:1036B000081C03A926F06AFA0399041C286B22F05F
:1036C000A1FD6CE0012B07D149780234052966D0B1
:1036D000006B03F02DFD62E0042B07D1897863783D
:1036E00009021943006B22F0D3FD16E0052B19D116
:1036F0004379042B02D0006B2A490CE088784B7880
:103700000002184303A924F00EFC03992D6B09F065
:103710005DF9011C281C22F0C7FD201C26F065FA6B
:10372000041C3CE01A1C0A3A081C0F2A08D803A9FA
:1037300021F052F90399041C281CFFF7BFFD2EE06D
:10374000082B0BD103A926F017FA039B2A6A9B00CA
:10375000041C9958286B22F0A7FD20E002AA03ABB5
:1037600001A926F073FA041C0299286B03F096FC59
:10377000019B0D4A9B009B58281C211C002B03D148
:103780000A4AFFF717FE09E0039A9847AB68002B37
:1037900004D0EB68002B01D1029BEB60039C201C42
:1037A00005B030BD20F30200F8E702007C500300B2
:1037B000F0B587B005930B1C141C5A1E9341009161
:1037C000DBB2061C0599201C0193002526F001FAA6
:1037D000019B0290AB4209D0009B1B78842B05D142
:1037E000291C306B029A22F060FF009D271C029B6F
:1037F000013B0493019B0393059B9F421CD03B78A4
:10380000842B0ED1002D06D1306B0399049A22F03F
:103810004CFF3D1C05E0301C391C214AFFF7CAFD56
:103820003BE0381C26F0E1F9039B071C01330393AE
:10383000049B013B0493DFE7002D07D1019A029B13
:1038400094466344191C306B22F023FF019B002B2C
:103850001CD0009BAB4205D1281C26F0CBF9011CE3
:10386000301C01E0301C0099002200F01BF80DE034
:10387000AC420FD1201C26F0BDF9011C301C0022E7
:1038800000F010F8201C26F0B0F9041C059B9C42A7
:10389000EED102E0301C211CF1E707B0F0BDC046BC
:1038A00094500300F0B50B78171C1A1C0A3A85B027
:1038B000041C0D1C0F2A0FD8081C03A921F08CF83A
:1038C000201C0399002F01D0022F02D1FFF70AFD1F
:1038D000E1E0FFF7F3FCDEE0192B01D86F4AD8E0F6
:1038E0001A3B7C2B00D183E004D8252B76D0772B94
:1038F00006D0CBE07E2B00D188E0912B6ED0C5E0C6
:10390000081C02A926F07BF9061C022F03D0201CFC
:10391000311CFFF7C3FE301C26F067F90299061C24
:1039200021F052F8002800D0B0E03378922B14D167
:10393000301C03A926F063F9061C301C26F055F94B
:10394000039A0190904208D2022F01D1019EF4E720
:10395000201C311CFFF7A2FEF8E73378A12B19D108
:10396000022F04D1206B22F039FD206B0FE0301CB8
:1039700026F040F9011C201CFFF790FE206B012F60
:1039800005D122F0FFFC206B22F0CFFC1DE022F0DD
:10399000E4FC1AE0A22B79D1301C26F02BF903A904
:1039A00021F01AF8012F07D1206B22F0E1FC206BE7
:1039B000039922F098FC08E0022F02D1206B22F03C
:1039C000F6FC206B039922F0BBFC301C26F00DF9AD
:1039D000029920F0F9FF00285DD157E0002F51D166
:1039E00003A9281C26F00BF9391C021C201C3CE002
:1039F000081C03A926F003F90399061C20F0E4FF34
:103A0000002843D1002F3DD1351C17E0002F39D1BC
:103A1000081C03A926F0F3F80399051C20F0D4FF35
:103A2000031E04D0201C391C3A1C3B1C27E02A78BA
:103A30009A2A03D0201C291C1A1C20E003A9281C48
:103A400026F0DDF8061C26F0D0F803789D2B04D173
:103A50000022201C311C131C11E09E2B07D103A94E
:103A600026F0CDF8311C021C201C039B07E0BE2B66
:103A70000CD026F0BAF80021031C321C201CFFF7E2
:103A800097FE08E0201C291C054A02E0201C291C86
:103A9000044AFFF78FFC05B0F0BDC046AE500300EE
:103AA000E1500300C6500300F0B50B7891B00A3B1B
:103AB000041C019105920F2B00D9ECE0081C26F0A4
:103AC00094F80378912B00D0E5E0019826F08DF86A
:103AD0000DA926F094F8037842780A3B1B021343A1
:103AE000AD2B00D0D7E026F080F80378051CA02B82
:103AF00000D0D0E026F0BEF8002800D0CBE0281C93
:103B000026F073F80D9B984200D0C4E0281C26F0E4
:103B100071F89C210E900EA826F080F80E9B051CD3
:103B20000293012302980F9326F05FF8061E0E9071
:103B3000AE4210D026F059F80E90A8420ED003786D
:103B4000032B00D0A7E00FA926F020F80E90A84282
:103B500000D0A0E002E07A4B029E0293029B1B7809
:103B60004833DBB2022B00D895E033784833DBB220
:103B7000022B00D88FE00D9B181C049326F035F81B
:103B8000059A2769831A5A1E9341021C5B421A4008
:103B90000F9B03920593238B27830993638B0A93CF
:103BA000E38B0B937B1C0693BB1C07936B461B8B11
:103BB0006383A38BE383FB1C08933B1D2361357850
:103BC000033D6B1E9D41EDB2002D03D0201C311C26
:103BD000FFF764FD0299201CFFF760FD206B089938
:103BE00022F011FC0799206B22F0D8FA206B22F00A
:103BF000BFFB0022201C0199FFF754FE0499201CF2
:103C0000FFF74CFD206B069922F0C8FA206B05994E
:103C100022F0F8FA206B122122F0A6FC206B089902
:103C200022F0BCFA206B002D05D022F0ABFB206BFC
:103C300022F0BDFB05E022F09BFB201C311CFFF7AE
:103C40002DFD059B206B1921002B00DA1A2122F093
:103C50008BFC206B0121079A22F0E1FB6B469B8CC9
:103C600023836B461B8D63836B469B8DE383039B92
:103C7000002B03D0201C191CFFF710FD206B391CF2
:103C800022F08CFA206B22F087FB002D56D0206B9F
:103C900022F082FB52E0238B25690393638B6E1C19
:103CA0000493E38B66830693AB1C0293A38B01986A
:103CB000E383244B2B432383EB1C236125F095FFE7
:103CC000011C201CFFF7EAFC071C206B22F0F8FB0C
:103CD000206B311C22F062FA206B029922F0FAFB71
:103CE000201C01990022FFF7DDFD391C201CFFF785
:103CF000D5FC071C206B22F048FA002803D1206B6A
:103D0000311C22F080FB206B029922F047FA206BD5
:103D100022F0ECFB6B469B8923836B461B8A6383F3
:103D20006B461B8BE383059B9F4203D0201C391CF1
:103D3000FFF7B4FC206B291C22F030FA11B0F0BD63
:103D4000BFCE03000080FFFFF0B5171C85B0041C38
:103D5000081C0D1C25F049FF391C061C20F034FE00
:103D6000019000281CD02379201C002B11D0E36A7D
:103D70001E78002E0DD11321FFF7A0FA291C201C5C
:103D8000FFF78CFC206B0121321C331C22F0CCFC91
:103D900002E0291CFFF782FC206B22F0FDFA58E0BC
:103DA00033783B2B1BD1291C201C0122FFF77AFD05
:103DB000301C25F01FFF4378811C4E3BDBB21826D8
:103DC0000A2B01D8244AD65C201CFFF767FC206B25
:103DD000311C22F0C9FB201C291C022237E03C2B9D
:103DE0002ED1301C03A925F00AFF061C071C039BDB
:103DF0009F4205D0381C25F0F8FE0197071CF6E716
:103E00000199201CFFF74AFC206B22F0B1FA201C1C
:103E1000291C0022FFF746FD019B9E4219D0301C51
:103E200025F0E3FE019B051E9D4202D0206B22F08F
:103E30009FFA311C201C0022FFF734FD2E1CEBE7FB
:103E4000311C201CFFF72AFC201C291C019AFFF7BB
:103E500029FD05B0F0BDC046494F0300F0B589B05B
:103E6000041C0D1C059104921F1C002924D1837988
:103E7000002B27D0C36A02911B78012B23D1052187
:103E8000FFF71CFAE26A108D854211DAD16AEB0065
:103E9000CB1801215E780E4208D05A88206B22F0A0
:103EA000F4F80022206B0221131C97E00135EBE7A8
:103EB000201C00214B4A22E005A89C2125F0AEFEE3
:103EC000029000E0029300231E1C059D00930393C3
:103ED000019308E0281C1E4325F08CFE0390281C4B
:103EE00025F083FE051C029B9D4254D02B78B82BF5
:103EF00008D1B73B1E42EDD0201C291C3A4AFFF7DF
:103F000059FA6DE0B92B0CD1B73B1E4203D0201CEF
:103F1000291C364AF3E7281C1E4325F06BFE00904F
:103F2000DDE7BA2B2BD1281C25F064FE051C25F0FB
:103F30005CFE0378BE2B09D1201C291C062220F030
:103F400069FE281C013725F050FEC9E72B780A3B93
:103F50000F2B03D9201C291C254AD0E7281C07A9B0
:103F600020F03AFD051C0799206B22F091F9291CDD
:103F7000201CFFF793FB019B051C0133A8E7019B65
:103F8000201C291C002B01D01A4AB8E7FFF786FB3A
:103F90000137051CA7E7002E15D0039B002B03D18A
:103FA000206B22F096F903E0201C0399FFF776FBC3
:103FB000009B002B03D1206B22F08BF903E0201C27
:103FC0000099FFF76BFB049B206B391C019A002BB7
:103FD00003D0331C22F0B2FB02E0331C22F0A4FB1E
:103FE00009B0F0BD0D5103002B51030042510300F5
:103FF0005A5103007B510300F0B589B0041C0391B2
:1040000003A8072125F00AFE0027E36A01905E7EDF
:104010000398019B98424AD005A925F0F0FD402164
:10402000039003A825F0FAFD06A9051C039820F0CB
:10403000D3FC069B02902A2B19D1A8420DD20298DC
:1040400025F0D3FDA84208D1029807A920F0C4FCAE
:10405000079B2B2B07D02D2B07D0201C0021244A97
:10406000FFF7A8F920E001261EE004261CE0201C32
:104070000399FFF713FB013703900398A84208D078
:1040800007A920F0A9FC07990390206B22F02BF9D7
:10409000F3E7281C059920F097FC002804D1A071B3
:1040A000291C201CFFF7FAFA059B0393B0E7181CA4
:1040B00025F0A0FD019B03901B78011C321C201CE5
:1040C000242B02D120F03DFD01E020F0B9FF051CBA
:1040D000013F06D30022206B0121131C22F024FB98
:1040E000F6E7201C291CFFF7FDF809B0F0BDC0461B
:1040F0009D510300F7B50A780824131C293BA343FC
:10410000DBB2002B02D10133C37168E0131C2A3BE0
:10411000A343DBB2002B62D0131C0A3B0E1C041C11
:104120000F2B1DD9081C282A13D101A925F067FDE2
:10413000071C25F05AFD019B0025984212D025F05E
:1041400054FD019B051CC31A5A1E93415B421D403E
:1041500008E025F04FFD071C25F047FD051C01E098
:104160000F1C0025381C01A920F036FCE379002D36
:1041700002D02A78002A0AD1002B30D1E38A002B02
:104180002DD0201C311C164AFFF714F927E0002B14
:104190001ED0A38A01339BB2A382012B0CD1E18AEA
:1041A000206B002902D022F002FA01E022F091F8FF
:1041B000206B002122F022FA291C201CFFF76EFA46
:1041C000206B019922F064F8206B22F023FA06E0BC
:1041D000E38A201C0133E382291CFFF75FFAF7BD55
:1041E000BB510300F0B5041C0E1C056987B0039396
:1041F0006B1C0293AB1C0361291C006B171C22F083
:104200003CF9201C20F0F0FB311C201CFFF746FA83
:10421000206B22F071F9206B029922F0F4F8206BE8
:10422000291C21F0BBFF206B22F0CDFA2669731CFC
:104230002361039B9F4200D191E0381C25F0DAFCFA
:10424000002305932369051C01930133236103783F
:10425000002B0FD125F0C9FC25F0C7FC039B984229
:1042600023D0201C291C4B4AFFF7A4F8A38B013B49
:10427000A3838CE0071C6A2B07D125F0BBFC071C2D
:1042800025F0B3FC05A920F0A7FB206B22F070F805
:10429000391C201CFFF702FA206B212122F064F95F
:1042A000206B0021019A22F0BAF8281C25F09DFC11
:1042B000071C206B22F070F80599002903D1206BB0
:1042C00022F06AF802E0201CFFF70CF80025206BB2
:1042D00022F062F8059BAB4209D02569206B6B1C6C
:1042E0002361291C22F0D5F8201C20F07DFB391C0D
:1042F000201CFFF7D3F9059B071C002B02D0206B75
:1043000022F0FAF8206B22F018F9059B002B19D047
:10431000206B0F2102F00CFF206B291C21F03EFFC7
:10432000206B0F2102F004FF201C0599FEF7DAFF35
:10433000201C0599FEF7EAFFA38B206B013BA383AA
:1043400022F0B3F8206B311C22F05DF8206B01994C
:1043500021F024FF206B032121F01CFF69E7A38BD0
:10436000206B013BA38322F0A0F8206B22F02FFAF0
:10437000206B029921F012FF0C9B002B03D0201C14
:10438000191CFFF78BF9206B311C21F007FF07B0D8
:10439000F0BDC046E9510300F0B587B00391437901
:1043A000012B42D1C36A041C1B78002B03D1204A85
:1043B000FFF700F839E0039B03A84321019325F0A0
:1043C0002DFC02900398029B98422ED005A90B2742
:1043D00020F002FB02AB059DFF180390291CE06A48
:1043E0003A1C23F07EFF3B78061C002B06D1037895
:1043F000042B03D0201C01990E4A0CE0E06A291C12
:1044000023F09CFF002803D00378023B022B05D940
:10441000201C0199084AFEF7CDFFD3E7042333702F
:10442000E06A291C23F09CFFCCE707B0F0BDC04632
:10443000085203002D5203004E520300F0B585B020
:1044400001914379012B2BD10091041C432101A838
:1044500025F0E4FB071C0198B84221D003A90B25E5
:1044600020F0BAFA039E6D440190311CE06A2A1CC8
:1044700023F037FF2B78002B08D10378012B05D0D0
:10448000201C0099074AFEF795FFE4E70125057017
:10449000E06A311C23F049FF0028DCD00570DAE720
:1044A00005B0F0BD6C52030010B5438B041C002B0B
:1044B00002D1054AFEF77EFFA38BE28B618B9A1A2D
:1044C000206B02F05BFE10BD8B52030010B5038B16
:1044D000041C002B02D1054AFEF76CFFA38BE28B74
:1044E000218B9A1A206B02F049FE10BDA3520300E3
:1044F000F7B50B78041C1A1C0A3A0E1C0F2A08D8B0
:10450000081C01A920F068FA201C0199FEF7FEFEA4
:1045100076E0912B3FD1081C694625F070FB011C09
:10452000201CFFF7BBF80378051C922B10D101A9C2
:1045300025F065FB051C281C25F057FB019B071E79
:104540009F4205D0291C201CFFF7A8F83D1CF2E76C
:104550002B78A12B0BD1281C25F04CFB011C201C17
:10456000FFF79CF8051C206B21F042FF0CE0A22B0A
:1045700041D1281C25F03EFB01A920F02DFA01991C
:10458000051C206B21F01DFF281C009920F01CFA4F
:10459000002830D034E0962B2DD1081C25F06AFB82
:1045A000002828D1301C25F025FB061C25F022FB15
:1045B000051C201C291CFFF79BFF281C25F015FB60
:1045C0000378011C9D2B1BD09E2B0ED101A925F039
:1045D00016FB019B051E9D4212D0201C291CFFF7D3
:1045E00087FF281C25F001FBF3E7BE2B03D0201C1E
:1045F000FFF77EFF04E0201C311C024AFEF7DAFEC2
:10460000F7BDC046B8520300F7B502260D1CC16ABB
:10461000041C097E314003D0201C291C334A5EE073
:1046200001912978081C0A380F2801D8281C05E0B8
:104630001A32914212D1281C25F0DCFA01A920F08F
:10464000CBF9E279E36A002A04D15A8B01325A830A
:10465000012635E09A8B01329A83F9E71A339942A1
:1046600023D1E379002BD7D10127281CE77125F04E
:1046700001FB0326002823D1281C25F0BBFA027871
:10468000E36A0A3A0F2A04D81A7E281C17431F76B9
:1046900005E01A7E281C17431F7625F0ABFA25F09B
:1046A000A9FA01A920F098F90AE0281C25F0A2FA3D
:1046B00001A920F091F9E26A137E1E4316760526C1
:1046C0000199002911D06B46DF1CE06A3A1C23F0E7
:1046D00008FE3B78002B05D1201C291C044AFEF75C
:1046E00069FE02E0022346700370F7BDD05203005A
:1046F000DF52030038B5C36A041C1B780D1C012B64
:1047000004D000210B4AFEF755FE11E0081C111CD5
:1047100020F05AF9002804D0206B0F2102F008FD88
:1047200003E0201C291CFEF7B9FF206B22F011F8D2
:1047300038BDC046F852030038B5C36A041C1B7864
:104740000D1C013B012B04D90021164AFEF732FE55
:1047500026E0081C111C20F037F9002804D0206B3B
:104760000F2102F0E5FC18E02B78C22B11D1281C98
:1047700025F040FA011C201CFEF790FF206B21F071
:104780009FFE206B0F2102F0D3FC206B22F00BF870
:1047900006E0201C291CFEF781FF206B21F0F4FFAE
:1047A00038BDC04612530300F0B5041C85B00D1C83
:1047B000081C111C20F008F9002804D0206B0021EF
:1047C00021F01CFF80E02B78AF2B0BD1206B012157
:1047D00021F014FF201C291CFEF760FF206B21F044
:1047E00019FF71E0AE2B67D1281C25F003FA051CD8
:1047F00025F0FBF902900378B22B53D103A925F0E1
:10480000FEF9039B0290984203D002A8992125F05B
:1048100005FA2B78AF2B11D103990298266B25F05E
:10482000D8F9411C301C21F0E9FE291C201CFEF7A0
:1048300035FF206B21F0EEFE012304E0201C291C33
:10484000FEF72CFF0023029F0193039B9F421ED083
:104850003E78391CAF3E201C73425E41FEF71EFFBE
:10486000019BF6B2071C002B09D0002E03D1201C9F
:10487000291C164A08E0206B21F0CCFEE5E7002E4B
:10488000E3D0201C291C124AFEF794FD1CE0019B7A
:10489000002B19D1391C0298246B25F09AF9411C80
:1048A000201C0FE02B78201C291C0422AF2B00D0E9
:1048B000052220F0AFF907E0291C201CFEF7EEFED0
:1048C0000121206B21F0BEFE05B0F0BD2B5303008B
:1048D0004E530300F0B50123041C0D1C427187B038
:1048E000E1620361111C006B2A1C02F00FFB63796B
:1048F000012B02D100236B84AB84AE6833781E2B6E
:1049000007D1301C25F076F9011C201CFEF7C6FEED
:10491000B9E02B78002B04D1201C311CFEF7BEFE21
:10492000A7E0012B1ED1301C25F05FF96379051C2F
:10493000012B07D10023201CE371291C0C22564BAC
:1049400020F0C6F8281C25F050F925F04EF9011C7E
:10495000201CFEF7A3FE206B21F017FC002800D0DE
:1049600094E086E0022B18D16379012B07D1002354
:10497000201CE371311C1422484B20F0A9F8301C94
:1049800025F033F9011C201CFEF788FE2B7E5B0707
:1049900079D5206B21F000FD6BE0033B032B3AD867
:1049A000301C25F022F905A925F029F925F01DF97B
:1049B00067790390012F09D10B2202ABD218E06A6C
:1049C000391C23F08EFC022303706F832B78032B9A
:1049D00004D1206B002121F0F7FD0CE0042B04D161
:1049E000206B002121F00AFE05E0052B03D1206B8E
:1049F000002121F027FE201C0121FEF75FFC00238F
:104A0000201C00930399331C059A20F017FE2B7885
:104A1000062B38D12DE06379012B06D1281C052106
:104A200005AA23F05EFC0223037005A9A8681FF005
:104A3000D3FF201C0D21FEF741FC201C0C21FEF7AA
:104A400051FC206B296921F023FC1121201CFEF769
:104A500049FCA86825F0C9F825F0C7F8011C201CFE
:104A6000FEF71CFE281C052123F02BFC0378022BEB
:104A700004D1206B0F2102F05BFB04E0428805218A
:104A8000206B21F002FB206B21F063FE206B02F013
:104A9000CBFA07B0F0BDC046655202005952020081
:104AA000F0B51E1C0F1C99B009AC00210590151C17
:104AB000201C3C2228F03EF9059B09975B68267173
:104AC0002362059B186825F090F825F06EF8606267
:104AD000800021F092FE0021059BA06200951B68DA
:104AE000201C0A1C1FF08AFF21F039FB00230290D2
:104AF000206303930026331C626A964202D3002B84
:104B0000F8D12CE0A268002AF9D1A16AB200555868
:104B1000002D16D06A69002A13D125F0D3F86B7ED8
:104B20006861291C201C0122042B02D1FEF756FCCF
:104B300001E0FFF7CFFE2369039A9A4200D2039364
:104B400001230136D8E70B9A002A00D0AEE0049981
:104B5000139B8900CB58002B09D1049B013304938C
:104B6000129B0693069A049B9342ECD39EE0197E17
:104B7000C90723D51C8D601EC000002C1ED0D96A29
:104B800009184D78AE0711D5002A17D050880F1C90
:104B90008446506816780690557811CF11C2624647
:104BA0004A80069A0E704D704A6007E0002A02D1D2
:104BB000012D00D10A1C013C0838DEE700211984D0
:104BC0001A8D944691421CDAD86ACA008218187865
:104BD000072802D15468052C11D00138052804D8C3
:104BE0001078002801D1013010701078022802D00E
:104BF0005078C00703D5188C441C1C8450800131A8
:104C0000DEE7002161450ED0D86ACA00821810780C
:104C1000032806D15078C00703D4188C5080013087
:104C200018840131EEE75E68002E96D00024328DA4
:104C30000792221C07998C421CDAF16AE0000918DD
:104C40000691097800250339012911D865450FD04F
:104C5000DF6AE90079180F78042F07D106984768B2
:104C6000381E4F68B84201D14A8001320135EDE764
:104C70000134DFE70020824200D16EE760450DD0AD
:104C8000DC6AC10061180C78042C02D14C78E4076E
:104C900002D54C8814194C800130EFE7598B92B241
:104CA00051185983198C52181A8456E70026029815
:104CB000039921F059FA351C129B04939E4210D39C
:104CC0000B9B0393002B4FD0149B0CA899681FF0EB
:104CD00064FF149B0B9809990C9A1B690FF032FB27
:104CE00042E00B9B0493002BEAD1139B0493049A9C
:104CF000B3009C58002C35D0637E042B19D1002DB5
:104D000003D1039821F035F8051C002315932D4B92
:104D100009A8211C032217931695FEF75FFB0B9B36
:104D20000493002B1ED109A8211C0422FEF756FB78
:104D300018E0029B09A8211C02221593FFF7CAFD67
:104D40000B9B0493002B04D109A8211C0322FFF71D
:104D5000C1FD0B9B0493002B04D109A8211C042244
:104D6000FFF7B8FD0136A7E7029821F005FA002DFC
:104D700002D0281C21F00EF80024059824F084FFAE
:104D8000139B1B685D69129B02939C420AD2139B82
:104D90000293029AA3009858002801D023F088FAC1
:104DA0000134F0E7139821F03DFD0B9A002A02D060
:104DB000101C11F0FAF8281C111C24F08EFF19B0F9
:104DC000F0BDC046F4F00200F8B50D1C061C141C22
:104DD00005F06AF92B1C032733433B420BD1BC423D
:104DE00009D9A208301C291C14F020FF231CBB4346
:104DF000F618ED183C40002C04D0301C291C221C55
:104E000027F0FBFD8023044ADB00D358002BF9D0A8
:104E100005F03AF9F8BDC04600E00140F0B50027C2
:104E20000D1C85B003901E1C081C104B111C009714
:104E300002220FF079FBA81C800021F0CCFC039B20
:104E4000041C03606B1E3D1C039343603368836046
:104E5000039B9D4207D20135AF00F05901F030F9B4
:104E6000E719B860F4E7201C05B0F0BDFFFF0000B3
:104E70000F22114008B5031C081E03280ED815F098
:104E800011F90204090D181C0BE00648002B08D18B
:104E9000054806E0181C21F027FE02E0181C21F04E
:104EA0003EFE08BD94F70200D8F70200F7B50028CF
:104EB00005D13A493A4A3B4825F03EFB6BE00D6884
:104EC000281C0CF013FC4368061CEF2B04D16D6802
:104ED000281C0CF00BFC061C00233349DA00505848
:104EE000854203D18A182F4851680AE00133612BAB
:104EF000F3D12C4C2D4B201C9D4201D09E4203D15E
:104F00002B4925F04DFA46E02A4925F015FB281CCF
:104F100000210CF01FFC201C2749726825F00CFBB7
:104F2000264B9E4203D1281C23F0F4FE0CE0244BB8
:104F30009E4200D0351CA86B00282CD083072AD1B4
:104F4000204B02689A4226D124F0B6FF0025061EA7
:104F5000AE4220D073689D421DD2B268EB00D318D8
:104F60001F68002F15D05B681749201C019325F09E
:104F7000E3FA381C00210CF0EDFB1449201C25F04D
:104F8000DBFA019800210CF0E5FB201C104925F00C
:104F9000D3FA0135DEE70F48FEBDC04655B2030027
:104FA0006D530300B03A0300D4EC02008CF1020010
:104FB000E45703000058030008580300E0180300FA
:104FC000FCE20200342E030044CC03001858030016
:104FD000D8B0030020F30200F0B5051C8BB00868C0
:104FE0000C1C08F07DF9049004A820F0FEFD0027B9
:104FF000049B03900693069B1978002912D0081C85
:105000000FF052FA0126002807D006A820F0FFFD75
:10501000069B1B78732B00D0061C069BBF1901331F
:105020000693E8E7381C09F0D3F90122009007A99C
:1050300060680CF005FE079B089A05939B18019287
:105040000293022D0AD9A0680CF03AFC002802DA7B
:10505000089BC01826D4059B1818059000240DE065
:10506000291C07F0B3FC059B009A5D19A31C9B004B
:10507000059501349850049B01330493BC4230D20F
:10508000049B187800282CD00FF00EFA0125002878
:1050900003D004A820F0BBFD051C0598029A431913
:1050A0009A4205D21049114824F032FF10F07DFFDA
:1050B000049B1B78732BD3D0009BA6009E190195EF
:1050C000019B0436002B0AD0049B0398197805AA8B
:1050D0000AF03CFA019B7060013B0193F0E7641910
:1050E000C9E700980BB0F0BDC0790300243003007D
:1050F000F0B589B0039101921E1C08F0F1F80490FC
:1051000004A820F072FD00250290B5424ED2049B07
:10511000187800284AD00FF0C7F90124002803D0DE
:1051200004A820F074FD041C039B019A1B199A42E9
:1051300005D21F491F4824F0EBFE10F036FF049BF8
:105140001B78732B04D02D190E9BAF00DF191CE0C8
:105150000E9B6F1CAD00E85805A901220CF070FDF4
:10516000069B251E9D4200D91D1C2A1C05990398EB
:1051700027F0C3FD039B621B5819002127F0DAFDBD
:10518000039B3D1C1C1903940CE0002C0AD0049BCB
:1051900002981978A3005B42FA5803AB0AF03EFA72
:1051A000013CF2E7049B01330493AEE709B0F0BD84
:1051B000C079030024300300F0B50E1C89B00390C1
:1051C00001CE0F1C20F039FD4410211C04A821F051
:1051D0009CFE069D221C281C002127F0ABFD039B92
:1051E00000962A19013B3868291CFFF781FF04A9A2
:1051F000024807F09DFB09B0F0BDC046BC0C03009F
:1052000030B50C1C89B0051C0222486805A90CF0B9
:1052100017FDA0680CF054FB002809DA069B0393E5
:10522000C01805D509490A4824F072FE10F0BDFEE9
:10523000059B069A1918201C0C309A180090EB1E3A
:105240002068FFF755FF034809B030BDC07903005F
:105250002430030020F30200F7B51F1C13780E1C46
:105260000A3BD9B2051C1F480F2904D850781B02ED
:10527000184322F053FE1524037801931A4B01338F
:105280001522121B00921978019A91421CD1427882
:1052900059788A4218D182789978914214D100299C
:1052A0000FD1009B9A00104BD45CBC4217D93B1C19
:1052B0000E480F49321C0EF0D7FFAB68002418606F
:1052C0000DE0C1780029ECD0013C0433002CD7D18B
:1052D00006480849321C0EF0C7FFAB681860201C56
:1052E000FEBDC04681B20300CC7B03008C350300B9
:1052F000377A0300507A0300F0B5177885B0051CA3
:105300000E1C992F47D1101C01A924F078FC019B99
:10531000021E9A423FD00378191C0A390F2908D877
:105320000F23281C311CFFF797FF01238340181C13
:1053300039E0AE2B2FD124F05DFC041C24F055FC89
:1053400002900378B22B26D1221CA33B311C281CCF
:10535000FFF782FF012403A98440029824F04FFC48
:10536000039B0290984203D002A8391C24F056FCFB
:10537000029A039B9A420CD0311C0F23281CFFF782
:105380006BFF0123834002981C4324F02EFC029003
:10539000EEE7201C07E005480549321C0EF064FFCB
:1053A000AB681860002005B0F0BDC0468C35030026
:1053B000687A0300F0B585B0041C0D1C101C03A90D
:1053C0001E1C24F0F8FB071E08D10E480E492A1CAB
:1053D0000EF04AFFA36818603B1C0FE003980CF026
:1053E0009BFA021C031CB24308D0009605480749EB
:1053F0002A1C0EF039FFA36818600023181C05B0A2
:10540000F0BDC0468C350300837A03009B7A03000D
:1054100038B513780D1C0A3BD9B2041C0F2908D9E2
:105420002A1C124812490EF01FFFA36800251860BD
:105430001AE052781B021343C2680020904208D041
:10544000256981004959994201D1051C0CE00130C0
:10545000F4E722880025042A06D11A1C03480549CE
:105460000EF002FFA3681860281C38BD8C350300BD
:10547000C77A0300DC7A0300F0B587B0041C0F1C68
:10548000081C04A91E1C019222F04DFD019B051C65
:10549000002B13D1322F03D1BF2160690902EAE149
:1054A000482F08D0019BBE48BE492A1C0EF0DCFEE6
:1054B000A3681860E1E16069BB49DCE1019B012B55
:1054C00000D08BE0412F09D1291C201C3268FFF746
:1054D0009FFF011C606922F0E2FD0AE0422F12D119
:1054E000291C201C3268FFF793FF011C606922F021
:1054F0002DFE002800D0C0E1A948AC49A46824F0E2
:1055000007FD2060B9E1432F09D1291C201C326816
:105510000F23FFF7A1FE8E21C000C901A9E1037886
:10552000622B33D1049B032B07D0052B2ED1C378DC
:105530005F2B2BD103796E2B28D101279C4A6978E8
:10554000531C7F422B321878884206D1A8788446B3
:105550005878844501D1581E077803339342F2D11D
:105560007B1C9FD03268201C291CFFF751FF049B35
:10557000021C00266069052B03D12B79773B5E4224
:105580005E41331C391C22F0A6FDB2E7462F02D142
:10559000606988496FE1472F02D1606986496AE1F5
:1055A000442F0BD1291C201C3268FFF7A5FEFF23D6
:1055B0001B02B421184200D074E70DE0452F00D043
:1055C00070E7201C291C3268FFF796FEFF231B02A0
:1055D000184200D066E7BC2109024AE1019B022B78
:1055E00000D0D4E073681B780A3B0F2B49D8332FC7
:1055F00012D1291C3268201C0F23FFF72DFE291C15
:10560000071C7268201C0F23FFF726FE391C021CA2
:10561000606922F02FFD30E100230293342F1BD16B
:105620008027FF01291C3268201C0723FFF714FE86
:10563000291C01907268201C0723FFF70DFE391CFE
:10564000031C019A606922F00EFD16E1029B0133F2
:1056500002930F2B00D125E7029B281C9F00574B7C
:10566000791C5918032227F071FC0028EED1EB7841
:10567000002BEBD1514BFF5C80233F01DB011F432B
:10568000D0E7332F01D1802702E0352F13D1A02797
:10569000291C32680723201CFFF7DEFD291C01901E
:1056A000FF23201C7268FFF785FE019BBF010743A3
:1056B00019023943DEE0362F01D1C027E8E7372F42
:1056C00001D1E027E4E700233D4A990050184088C3
:1056D000874258D18B5A201C029332680723291C19
:1056E000FFF7BAFD766803903378982B28D1301CE9
:1056F00024F0C0FA002823D1301C24F07BFA037870
:105700009A2B1DD105A924F07AFA0599071C24F0DB
:1057100060FA022814D1381C24F067FA3A1C0723D7
:10572000061C291C201CFFF797FD029B071CDB04AD
:105730000ED5201C291C321C1F23FFF73BFE17E04F
:10574000174820492A1C0EF08FFDA3681860A9E6AF
:10575000029B201CDB0B291C321C002B04D03E2397
:10576000FFF728FE400803E07C23FFF723FE8008B4
:105770000399029BFF0019430F43F8218001C900E0
:105780000840391C75E00133062B9DD18AE6019B48
:10579000032B00D086E6382F16D1002718E0C0462C
:1057A0008C350300F37A030030BF0000537B030005
:1057B0000D7A030072B6000062B60000D1790300D2
:1057C00064440300287B0300392F1DD180273F014B
:1057D000291C32680723201CFFF73EFD291C01907D
:1057E00072680723201CFFF737FD291C02901F2336
:1057F000201CB268FFF7DEFD0199029B394380014E
:105800000143DB00194335E03A2F02D180277F01A5
:10581000DEE7362F01D1C02703E0372F00D041E665
:10582000D027291C32680723201CFFF715FD72685A
:1058300001900723201C291CFFF70EFDB2687F0191
:10584000137802900A3B0F2B05D8201C291C072334
:10585000FFF702FD07E08023DB001F43201C291C0B
:105860000723FFF7A7FD029B8001D900019B194385
:1058700039430143606922F0BFFB07B0F0BDC04669
:10588000F7B5061C0D1C00240192019B9D4228D0F7
:10589000631C0093052B03D1B4681348134907E038
:1058A00028780A38C3B20F2B07D9B4680E481049BC
:1058B00024F02EFB2060002014E06B7800021843D7
:1058C00022F02CFB0235071C27F039FB0228ECD113
:1058D0003B78722BE9D17B783034A342E5D1009C30
:1058E000D3E7201CFEBDC0468C350300677B030058
:1058F0009A7B030010B50B1C041C002906D0054A36
:10590000096802609A6B00230EF01CFD201C10F049
:105910004CFBC0468C350300F0B5041C87B00392E5
:1059200002936718002A0ED0023A222A0BD93D4969
:105930003D4824F0EDFA10F038FB20780EF09CFD85
:10594000002803D00134BC42F7D30AE023782B2B84
:1059500001D1013405E0061C2D2B03D101340126B1
:1059600000E00026391B201C03AA24F087FB231823
:105970001D1C00240093BD4210D22B78181C0193EB
:105980000EF092FD039B002806D0019A2F3A9A420E
:1059900002DC019B303B0DE0102B03D0002E19D010
:1059A000644217E02023019A13431A1C613A052A26
:1059B000F4D8573B201C0399019309F01FFF0028DE
:1059C0001AD1039B5C43019B1C196300634013D4F1
:1059D0000135D0E7012364001C43009B9D4216D093
:1059E000BD4206D228780EF047FD00280FD00135C1
:1059F000F6E7BD4213D00AE0009B05A80593F91A0B
:105A0000321C039B21F096F8059D041CE5E707492D
:105A10000548039A0EF028FC0299FFF76BFF201C43
:105A200007B0F0BD207C030024300300437C03005A
:105A3000F0B5041C8BB00993431808920193019BA5
:105A40009C4200D30EE120780EF016FD002801D014
:105A50000134F4E723782B2B02D10134049005E0C4
:105A600004902D2B0ED12C3B01340493019B9C42BE
:105A700008D3824B002706930023251C07973E1C62
:105A8000039356E0202322781A43692A2ED10199E4
:105A9000A21C914200D8BEE062781A436E2A00D060
:105AA000B9E0A2781A43662A00D0B4E0E21DE51CF2
:105AB000914200D8A8E0E2781A43692A00D0A3E016
:105AC00022791A436E2A00D09EE062791A43692A2D
:105AD00000D099E0A2791A43742A00D094E0E279C8
